:0E0000000C9466000C9400000C9400000C940C
:10000E0000000C9400000C9400000C9400000C9462
:10001E0000000C9400000C9400000C9400000C9452
:10002E0000000C9400000C9400000C9400000C9442
:10003E0000000C9400000C9400000C9400000C9432
:10004E0000000C9400000C9400000C9400000C9422
:10005E0000000C9400000C9400000000020100034C
:10006E00000003030302020C0008000100060E1D2F
:10007E001E1C1E1F0E000E1D1F1F1E1F0E000E1714
:10008E000F070F1F0E000E171F0F1F1F0E004865C4
:10009E006C6C6F004D72205061634D616E000800F4
:1000AE0003006800070000037C00070008038400BB
:1000BE00070010038C000700180394000000F8944A
:1000CE00EE27EFBBF1E0F5BFE5BF8DE0A2E0BB2769
:1000DE00ED938A95E9F780E098E0A0E0B1E0ED932A
:1000EE000197E9F7ECEAF0E085919591009761F0C0
:1000FE00A591B59105901590BF01F00105900D9257
:10010E000197E1F7FB01F0CFE0E0EEBBEFEFEDBFC3
:10011E00E8E0EEBFC0E0D3E00C946C012C978CE0CD
:10012E0060E070E0E0E7F0E03DD11A93539A529A06
:10013E00549A559A569A579AA2E3B0E03FD110E0DE
:10014E001C3070F4A2E0B0E039D1E12FF0E0DE0116
:10015E001196AE0FBF1FAC910DD009D01F5FF0CF1F
:10016E00ECE04E2EA42D1DD018812D9608955B9A8D
:10017E005B9808951A931A2F13FF02C05F9A01C05D
:10018E005F9812FF02C05E9A01C05E9811FF02C016
:10019E005D9A01C05D9810FF02C05C9A01C05C9828
:1001AE008DC01A930A930A2F5A9804C01A930A9371
:1001BE000A2F5A9AA2E0B0E001D1E02FE07F1E2F65
:1001CE0012951F70A12FD6DFD2DFE02FEF701E2FFA
:1001DE00A12FD0DFA2E0B0E0F1D0C9DF09911991D3
:1001EE000895D6D09D0110E0E12F1F5FF0E0E20FE1
:1001FE00F31FA491DBDFE12FF0E0E20FF31FE49198
:10020E00E03091F7CAD0249608951A930A931A2FC4
:10021E000A81E12FF0E0309719F4A02FA05814C0F6
:10022E00E130A0E0FA0719F4A02FA0540DC0E2307F
:10023E00A0E0FA0719F4A02FAC5606C0E330A0E0F8
:10024E00FA0719F4A02FAC52ACDF1981088123965E
:10025E0008959ED09D010C81E02FEE0FEE0FEE0F54
:10026E00E05CAE2F9EDF10E0183040F4D901EE278F
:10027E00A10FBE1FAC919ADF1F5FF6CFA0E891DFF2
:10028E008CD0259608951A931A2FE12FE064E093EF
:10029E007C0085E38A95F1F7E0917A00E064E093C3
:1002AE007A00E0917A00E071E1F3E0917A00E0618A
:1002BE00E0937A00E0917800F09179001991089519
:1002CE00A0E0E1DFDF017AD00895E1E0E0937E0067
:1002DE00E0E4E0937C00E7E8E0937A00E0E0E0936E
:1002EE007B00E2E0E7B9E8B919DF3A92A8E0B3E0A3
:1002FE00B0DF6A92A0E0B3E0ACDF5A92A8E1B3E0BF
:10030E00A8DF8A92A0E1B3E0A4DFAA2011F477203F
:10031E0009F00EC0E6E0EA93A0E077DFACE9B0E0CA
:10032E0060DFE4E0EA93A1E070DFA2EAB0E059DF1B
:10033E00AA92A72D6ADF319B02C0E62D01C0E82DDF
:10034E001AD0319B02C0E32D01C0E52D14D0A0E2DE
:10035E002DDF319B07C0A394E0E1AE1614F0AA2462
:10036E0010D007C0AA94E0E0AE161CF4EFE0AE2E5B
:10037E0008D0CBCFFFCFAE2F19DFA2DFAA92A72DC9
:10038E0044CFE72DEE23E1E009F0EE277E2E08950F
:10039E003A932A931A930A9308953B812A811981DD
:1003AE0008810895AF93BF93DB01AC0FBD1F05907D
:1003BE000D928A95E1F7BF91AF910895109639F09D
:1003CE00A89580EA9FE00197F1F71197C9F7089574
:00000001FF
